:020000040800F2
:10000000280400204501000805170008071700080C
:100010000B1700080F170008131700080000000056
:10002000000000000000000000000000171700089A
:1000300019170008000000001B1700081D17000812
:100040005F0100085F0100085F0100085F01000810
:100050005F0100085F0100085F0100085F01000800
:100060005F0100085F0100085F0100085F010008F0
:100070005F0100085F0100085F0100085F010008E0
:100080005F0100085F0100085F0100085F010008D0
:100090005F0100085F0100085F0100085F010008C0
:1000A0005F0100085F0100085F0100085F010008B0
:1000B0005F0100085F0100085F0100085F010008A0
:1000C0005F0100085F0100085F0100085F01000890
:1000D0005F0100085F0100085F0100085F01000880
:1000E0005F0100085F0100085F0100085F01000870
:1000F0005F0100085F0100085F0100085F01000860
:100100005F0100085F0100085F0100085F0100084F
:100110005F0100085F0100085F0100085F0100083F
:100120005F0100085F0100085F0100085F0100082F
:10013000DFF80CD001F028FB00480047FF1500084D
:10014000280400200648804706480047FEE7FEE7EF
:10015000FEE7FEE7FEE7FEE7FEE7FEE7FEE7FEE777
:1001600047020008310100080CB500200190009002
:100170006C48006840F480306A49086000BF6948F4
:10018000006800F4003000900198401C0190009835
:1001900018B90198B0F5A06FF1D16248006800F479
:1001A000003010B10120009001E000200090009884
:1001B000012843D15C48006840F010005A490860AB
:1001C0000846006820F0030008600846006840F018
:1001D0000200086053484068524948600846406839
:1001E00048600846406840F48060486008464068BF
:1001F00020F47C1048600846406840F4E8104860ED
:100200000846006840F08070086000BF45480068FC
:1002100000F000700028F9D04248406820F0030048
:10022000404948600846406840F00200486000BF0E
:100230003C48406800F00C000828F9D10CBD10B50E
:10024000FFF792FF10BD10B53648006840F001007E
:1002500034490860084640683449084031494860DC
:1002600008460068324908402E4908600846006880
:1002700020F4802008600846406820F4FE004860B2
:100280004FF41F008860FFF7DAFF4FF00060294944
:10029000086010BD10B5002100200022214B5B68D2
:1002A00003F00C0121B1042906D0082928D107E068
:1002B000214B224C236027E01F4B204C236023E07E
:1002C000184B5B6803F47010164B5B6803F48032C4
:1002D000022303EB904022B9194B4343174C236090
:1002E0000DE0104B5B6803F4003323B1144B434320
:1002F000124C236003E0104B4343104C236003E097
:100300000D4B0E4C236000BF00BF064B5B68C3F370
:1003100003130C4CE15C094B1B68CB40074C23607A
:1003200010BD000000100240002002400000FFF855
:10033000FFFFF6FE08ED00E000127A00000000204A
:1003400000093D000400002010B50446FC4884422A
:1003500011D0FC4884420ED0FB4884420BD0FB48AD
:10036000844208D0FA48844205D0FA48844202D038
:10037000F948844200D103E06F21F8A001F0FDF9B3
:10038000EF48844208D10121042001F05CF80021EB
:10039000042001F058F846E0EA48844208D10121DF
:1003A000082001F050F80021082001F04CF83AE054
:1003B000E548844208D10121102001F044F80021D1
:1003C000102001F040F82EE0E048844208D10121DD
:1003D000202001F038F80021202001F034F822E03C
:1003E000DB48844208D10121402001F02CF8002193
:1003F000402001F028F816E0D648844208D10121B7
:10040000802001F020F80021802001F01CF80AE093
:10041000D148844207D10121801501F014F8002150
:10042000A01501F010F810BD10B50121084601F02B
:100430000AF80021012001F006F810BD2DE9F05F57
:1004400005460C464FF00009CA4600260027B04674
:10045000B346BB48854211D0BA4885420ED0BA484F
:1004600085420BD0B948854208D0B948854205D0AD
:10047000B848854202D0B848854200D103E0B22195
:10048000B6A001F07AF9E078A0B1E078042811D0A4
:10049000E07828280ED0E07848280BD0E07814289F
:1004A00008D0E078102805D0E0781C2802D0E07849
:1004B000182800D103E0B321A8A001F05EF90020C4
:1004C00010B9208800B103E0B421A4A001F055F9CF
:1004D000E07800F00F09E07800F0100080B1A0781B
:1004E000012805D0A078022802D0A078032800D1E6
:1004F00003E0BB2199A001F040F9A07840EA090986
:10050000207838B3D5F8008000261FE0012000FADB
:1005100006F7208800EA070ABA4516D1B7000F206F
:1005200000FA07FB28EA0B0809FA07F040EA080876
:10053000E078282803D10120B040686105E0E07828
:10054000482802D10120B0402861761C082EDDD356
:10055000C5F800802088FF282BDDD5F80480002610
:1005600023E006F10800012101FA00F7208800EAE3
:10057000070ABA4518D1B7000F2000FA07FB28EA8E
:100580000B0809FA07F040EA0808E078282803D1A8
:1005900006F1080081406961E078482804D106F13D
:1005A0000800012181402961761C082ED9D3C5F8A5
:1005B0000480BDE8F09F4FF6FF7101800221817039
:1005C0000421C170704770B505460C4600265C4892
:1005D000854211D05B4885420ED05B4885420BD0E6
:1005E0005A48854208D05A48854205D05948854224
:1005F00002D05948854200D104E04FF48F7157A0D2
:1006000001F0BBF8012C25D0022C23D0042C21D0E2
:10061000082C1FD0102C1DD0202C1BD0402C19D002
:10062000802C17D0B4F5807F14D0B4F5007F11D0A2
:10063000B4F5806F0ED0B4F5006F0BD0B4F5805FC9
:1006400008D0B4F5005F05D0B4F5804F02D0B4F502
:10065000004F00D104E040F21F1140A001F08DF8DE
:10066000A868204008B1012600E00026304670BD91
:1006700010B504463248844211D0324884420ED02C
:10068000314884420BD03148844208D030488442FB
:1006900005D03048844202D02F48844200D104E083
:1006A0004FF49A712DA001F068F8A06880B210BDD7
:1006B00070B505460C4600262148854211D02148D8
:1006C00085420ED0204885420BD02048854208D074
:1006D0001F48854205D01F48854202D01E488542EA
:1006E00000D104E04FF4A2711CA001F046F8012CE7
:1006F00025D0022C23D0042C21D0082C1FD0102C64
:100700001DD0202C1BD0402C19D0802C17D0B4F534
:10071000807F14D0B4F5007F11D0B4F5806F0ED077
:10072000B4F5006F0BD0B4F5805F08D0B4F5005F6E
:1007300005D0B4F5804F02D0B4F5004F24D129E0A4
:1007400000080140000C014000100140001401406D
:1007500000180140001C0140002001402E2E5C2E9C
:100760002E5C4C69627261726965735C46576C6994
:10077000625C7372635C73746D3332663130785FC0
:100780006770696F2E63000040F24511AFF23400CC
:1007900000F0F3FFE868204008B1012600E00026E1
:1007A000304670BD10B50446FE48844211D0FE4864
:1007B00084420ED0FD4884420BD0FD48844208D0CC
:1007C000FC48844205D0FC48844202D0FB48844265
:1007D00000D105E04FF4AD71AFF2800000F0CDFF25
:1007E000E06880B210BD70B504460D46ED48844205
:1007F00011D0ED4884420ED0EC4884420BD0EC4836
:10080000844208D0EB48844205D0EB48844202D0B1
:10081000EA48844200D105E040F26911AFF2C40019
:1008200000F0ABFF002008B905B105E04FF4B57149
:10083000AFF2D80000F0A1FF256170BD70B504468D
:100840000D46D848844211D0D74884420ED0D748AC
:1008500084420BD0D648844208D0D648844205D082
:10086000D548844202D0D548844200D105E040F208
:100870007911AFF2181000F080FF002008B905B11F
:1008800005E04FF4BD71AFF22C1000F076FF65610A
:1008900070BD70B505460C461646C248854211D05B
:1008A000C14885420ED0C14885420BD0C048854220
:1008B00008D0C048854205D0BF48854202D0BF4815
:1008C000854200D105E040F28D11AFF2701000F0CA
:1008D00054FF012C25D0022C23D0042C21D0082C2D
:1008E0001FD0102C1DD0202C1BD0402C19D0802CB8
:1008F00017D0B4F5807F14D0B4F5007F11D0B4F5D3
:10090000806F0ED0B4F5006F0BD0B4F5805F08D0C7
:10091000B4F5005F05D0B4F5804F02D0B4F5004FB8
:1009200000D105E04FF4C771AFF2D01000F025FF01
:100930000EB1012E00D105E040F28F11AFF2E410AC
:1009400000F01BFF0EB12C6100E06C6170BD70B552
:1009500004460D469348844211D0934884420ED0F9
:10096000924884420BD09248844208D091488442F5
:1009700005D09148844202D09048844200D105E0DD
:100980004FF4D271AFF22C2000F0F7FEE56070BD9D
:1009900070B504460D464FF480368248844211D02B
:1009A000814884420ED0814884420BD080488442E2
:1009B00008D08048844205D07F48844202D07F48D6
:1009C000844200D105E040F2B511AFF2702000F092
:1009D000D4FE002008B905B105E04FF4DB71AFF299
:1009E000842000F0CAFE2E43A661A561A661A66917
:1009F000A66970BD70B505460C4600263DB1012DB7
:100A000005D0022D03D0032D01D0042D00D105E027
:100A10004FF4E971AFF2BC2000F0AFFEECB1012C55
:100A20001BD0022C19D0032C17D0042C15D0052C68
:100A300013D0062C11D0072C0FD0082C0DD0092C68
:100A40000BD00A2C09D00B2C07D00C2C05D00D2C68
:100A500003D00E2C01D00F2C00D105E040F2D311B1
:100A6000AFF2083000F089FE554806684FF68070F6
:100A7000064046EA051626435148066070BD10B58B
:100A800004460CB1012C00D105E04FF4F371AFF234
:100A9000343000F072FE4B48C46110BD2DE9F047C0
:100AA00004460E460027B8460025A946012C77D0FB
:100AB000022C75D0042C73D0082C71D0424884428B
:100AC0006ED04148203084426AD04048844267D08A
:100AD0003E488030844263D03D48844260D03D48E7
:100AE00084425DD03C4884425AD03C48844257D02E
:100AF0003B48844254D0B4F5805F51D0B4F5EA1F2E
:100B00004ED0B4F5EB1F4BD0B4F5004F48D035486C
:100B1000844245D0401C844242D0801C84427FD015
:100B2000001D84427CD02F480F30844278D0B4F12D
:100B3000201F75D04FEAF030844271D02A48844299
:100B40006ED02A4884426BD02948844268D0294814
:100B5000844265D02848844262D0B4F5011F5FD03A
:100B6000264884425CD0401C844259D0801C844278
:100B700056D0001D844253D020480F3084424FD0BD
:100B80001E481F3084424BD01C483F30844247D01F
:100B90001A487F30844243D01848FF3084422FE007
:100BA0003EE0000000080140000C01400010014040
:100BB0000014014000180140001C014000200140C9
:100BC0000000014000002042100014004000160008
:100BD00000011800000218000003180000081A00A5
:100BE000000C1A000100200000013000000230005B
:100BF00000043000001120000020200001000080CF
:100C00000ED0664884420BD06548844208D06548BF
:100C1000844205D06448844202D06448844200D1B2
:100C200005E040F22A21AFF2CC4000F0A6FD0EB163
:100C3000012E00D105E040F22B21AFF2E04000F0A0
:100C40009CFD04F00040B0F1004F02D15848C56946
:100C500001E057484568C4F30349A7B204F44010C3
:100C6000B0F5401F08D125F070655148406820F06C
:100C700070604F49486013E004F48010B0F5801FA5
:100C800007D1032000FA09F825EA080545F0706548
:100C900006E0600D000107FA00F0854345F070653D
:100CA00026B1600D010107FA01F0054304F0004090
:100CB000B0F1004F02D13E48C56101E03C484560BB
:100CC000BDE8F08770B505460C4600265DB1012DE4
:100CD00009D0022D07D0032D05D0042D03D0052DFA
:100CE00001D0062D00D105E040F26521AFF294500D
:100CF00000F043FDECB1012C1BD0022C19D0032CC9
:100D000017D0042C15D0052C13D0062C11D0072C8D
:100D10000FD0082C0DD0092C0BD00A2C09D00B2C8D
:100D200007D00C2C05D00D2C03D00E2C01D00F2C8D
:100D300000D105E040F26621AFF2E05000F01DFD69
:100D4000A007010F0F2000FA01F619480830A11082
:100D500050F82100B04316490831A21041F8220092
:100D60000846A11050F82100A107090F05FA01F16A
:100D700008430F490831A21041F8220070BD10B598
:100D800004460CB1012C00D105E04FF41E71AFF206
:100D9000346000F0F2FC0748046010BD00020080DF
:100DA0000004008000080080001000800020008007
:100DB00000000140DC002042FE48006840F00100D5
:100DC000FC49086008464068FB490840F94948600A
:100DD00008460068F9490840F64908600846006876
:100DE00020F4802008600846406820F4FE00486037
:100DF0004FF41F008860704710B504462CB1B4F55D
:100E0000803F02D0B4F5802F00D104E040F21111F0
:100E1000EBA000F0B2FCE748006820F48030E54920
:100E200008600846006820F480200860B4F5803F20
:100E300003D0B4F5802F0ED106E0DE48006840F400
:100E40008030DC49086007E0DA48006840F4A02000
:100E5000D849086000E000BF00BF10BD2DE9F04197
:100E60000446002500260027212C13D0312C11D058
:100E7000392C0FD0412C0DD0612C0BD07A2C09D0FD
:100E80007B2C07D07C2C05D07D2C03D07E2C01D070
:100E90007F2C00D104E040F23451C9A000F06DFC79
:100EA0006511012D02D1C348066806E0022D02D16A
:100EB000C048066A01E0BF48466A04F01F050120E9
:100EC000A840304008B1012700E000273846BDE8BF
:100ED000F08138B5002000900024002500BF3120AB
:100EE000FFF7BCFF05460098401C00900098B0F545
:100EF000A06F01D0002DF2D03120FFF7AFFF08B175
:100F0000012400E00024204638BD70B504460025C9
:100F10001F2C00DC04E04FF4A971A9A000F02DFC07
:100F2000A448056825F0F80545EAC405056070BDCC
:100F300010B504460CB1012C00D104E040F265115B
:100F40009FA000F01AFCA948046010BD70B50546CA
:100F50000C4600262DB1B5F5803F02D0B5F5403FD7
:100F600000D104E040F27F1195A000F006FC4CB3E4
:100F7000B4F5802F26D0B4F5002F23D0B4F5402F40
:100F800020D0B4F5801F1DD0B4F5A01F1AD0B4F541
:100F9000C01F17D0B4F5E01F14D0B4F5001F11D056
:100FA000B4F5101F0ED0B4F5201F0BD0B4F5301FD0
:100FB00008D0B4F5401F05D0B4F5501F02D0B4F5E9
:100FC000601F00D104E04FF4C0717DA000F0D5FB9C
:100FD0007848466826F47C1645EA040006437548BE
:100FE000466070BD10B504460CB1012C00D104E080
:100FF0004FF4CA7172A000F0C0FB7C48046610BDBB
:1010000070B5044600251CB1012C01D0022C00D182
:1010100004E04FF40E716AA000F0AFFB654845682C
:1010200025F003052543456070BD6248406800F027
:101030000C00704770B5044600257CB1802C0DD0A3
:10104000902C0BD0A02C09D0B02C07D0C02C05D0F0
:10105000D02C03D0E02C01D0F02C00D104E04FF4D0
:10106000197157A000F089FB5248456825F0F0053A
:101070002543456070BD70B5044600255CB1B4F5EC
:10108000806F08D0B4F5A06F05D0B4F5C06F02D062
:10109000B4F5E06F00D104E040F27E2148A000F0FA
:1010A0006CFB4448456825F4E0652543456070BD08
:1010B00070B5044600255CB1B4F5806F08D0B4F576
:1010C000A06F05D0B4F5C06F02D0B4F5E06F00D1C9
:1010D00004E04FF426713AA000F04FFB3548456814
:1010E00025F4605545EAC405456070BD70B50446F9
:1010F0000D4604F0E00008B904B104E040F2BF215D
:101100002FA000F03AFB0DB1012D00D104E04FF407
:1011100030712BA000F031FB2DB12648407A2043DE
:101120002449487204E02348407AA0432149487288
:1011300070BD10B504460CB1012C00D104E040F2A2
:10114000DB211FA000F019FB2848D830046010BD37
:1011500070B50446002544B1B4F5804F05D0B4F510
:10116000004F02D0B4F5404F00D104E040F202310C
:1011700013A000F002FB0F48456825F440452543C5
:10118000456070BD10B504461CB1012C01D0042C83
:1011900000D104E04FF4507109A000F0EEFA0020F5
:1011A000044920310870034981F82000012C21D026
:1011B000042C1DE0001002400000FFF8FFFFF6FEC7
:1011C0002E2E5C2E2E5C4C69627261726965735CB6
:1011D00046576C69625C7372635C73746D3332661C
:1011E0003130785F7263632E63000000000042427A
:1011F00008D103E00120F449087004E00520F24919
:10120000087000E000BF00BF10BD10B504460CB16F
:10121000012C00D105E040F26131AFF25C0000F03A
:10122000ACFAEA48046010BD10B50446B4F5807FFE
:1012300005D0B4F5007F02D0B4F5407F00D105E0C1
:1012400040F27231AFF2880000F097FADE482038A1
:10125000006A2043DC492039086210BD10B50446FD
:101260000CB1012C00D105E04FF46071AFF2B00079
:1012700000F083FAD5484438046010BD30B5002131
:10128000002200240023D04D203D6D6805F00C01A4
:1012900021B1042905D0082926D105E0CC4D0560EF
:1012A00025E0CB4D056022E0C74D203D6D6805F47B
:1012B0007012C54D203D6D6805F48034022505EBA4
:1012C00092421CB9C34D554305600CE0BE4D203D14
:1012D0006D6805F400351DB1BE4D5543056002E053
:1012E000BB4D5543056002E0B94D056000BF00BF2E
:1012F000B54D203D6D6805F0F0010909B64D6B5CF8
:101300000568DD404560B04D203D6D6805F4E06145
:10131000090AB14D6B5C4568DD408560AA4D203DF2
:101320006D6805F46051C90AAB4D6B5C4568DD40E2
:10133000C560A54D203D6D6805F44041890BA74D62
:101340006B5CC568B5FBF3F5056130BD70B504464F
:101350000D4640F2575024EA000008B904B105E0F8
:1013600040F22B41AFF2A81000F007FA0DB1012DA9
:1013700000D105E040F22C41AFF2BC1000F0FDF9C5
:101380003DB191482038406920438F492039486158
:1013900006E08D4820384069A0438B4920394861D8
:1013A00070BD70B504460D468D48204008B904B1A3
:1013B00005E040F24A41AFF2F81000F0DEF90DB15D
:1013C000012D00D105E040F24B41AFF20C2000F0BE
:1013D000D4F93DB17C482038806920437A492039CE
:1013E000886106E0784820388069A0437649203932
:1013F000886170BD70B504460D467A48204008B932
:1014000004B105E040F26941AFF24C2000F0B5F9BB
:101410000DB1012D00D105E040F26A41AFF260202C
:1014200000F0ABF93DB168482038C06920436649F7
:101430002039C86106E064482038C069A043624989
:101440002039C86170BD70B504460D46644820401F
:1014500008B904B105E040F2A441AFF29C2000F0CD
:101460008CF90DB1012D00D105E040F2A541AFF29C
:10147000B02000F082F93DB153482038C0682043C5
:1014800051492039C86006E04F482038C068A04361
:101490004D492039C86070BD70B504460D465148AD
:1014A000204008B904B105E040F2C341AFF2F0209A
:1014B00000F063F90DB1012D00D105E040F2C44107
:1014C000AFF2043000F059F93DB13F4820380069CF
:1014D00020433D492039086106E03B482038006937
:1014E000A04339492039086170BD10B504460CB1DC
:1014F000012C00D105E04FF49B61AFF23C3000F0CD
:101500003CF932484038046010BD10B504460CB1B7
:10151000012C00D105E040F2E541AFF25C3000F073
:101520002CF93148C46410BD10B504463CB1052CFB
:1015300005D0042C03D0062C01D0072C00D105E0E7
:1015400040F20551AFF2883000F017F91E482038FC
:10155000C47110BD1C482038406A40F080701A49A0
:1015600020394862704770B504460025012C09D027
:10157000022C07D0042C05D0082C03D0102C01D04D
:10158000802C00D105E040F27E51AFF2CC3000F06B
:10159000F4F80D4820388068204008B1012500E0AB
:1015A0000025284670BD10B5044604F0600008B957
:1015B00004B105E040F2AB51AFF2FC3000F0DDF8D1
:1015C00001482038847210BD20100240800442423D
:1015D00000127A0000093D001400002024000020C1
:1015E0000200C0FF003601810000424201B502E066
:1015F0000098401E009000980028F9D108BD00F026
:101600008FF879E020203D4908603D48FFF7EEFF64
:1016100020203A49091F08600120091D0860384848
:10162000FFF7E4FF01203549091F08600220091D6A
:1016300008603348FFF7DAFF02203049091F0860CD
:101640002020091D08600120091F08600220086091
:101650002B48FFF7CBFF20202849091F08600120F5
:10166000091D08600220091F08602548FFF7BEFF1A
:1016700020202249091F0860012008600220091D5E
:1016800008601F48FFF7B2FF20201C4908600120B6
:1016900008600220091F08601948FFF7A7FF2020F3
:1016A000164908600120091F08600220091D086012
:1016B0001348FFF79BFF20201049091F08600120F5
:1016C000091D0860022008600D48FFF78FFF2020E9
:1016D0000A49086001200860022008600848FFF7F6
:1016E00085FF20200549091F0860012008600220AD
:1016F00008600348FFF77AFF84E70000140C0140FC
:10170000FFFF0F00704700BFFEE700BFFEE700BF0E
:10171000FEE700BFFEE77047704770477047000064
:1017200008B501210820FFF73CFE2020ADF800009D
:1017300010208DF8030003208DF80200694611483F
:10174000FEF77CFE0120ADF8000069460D48FEF76B
:1017500075FE0220ADF8000069460A48FEF76EFEED
:1017600020210848FFF73FF801210648FFF73BF822
:1017700002210448FFF737F808BD2022014B14333B
:101780001A607047000C0140064C074D06E0E06807
:1017900040F0010394E8070098471034AC42F6D3B8
:1017A000FEF7CAFCCC170008EC17000802E008C8D6
:1017B000121F08C1002AFAD170477047002001E0CB
:1017C00001C1121F002AFBD170470000EC1700086E
:1017D0000000002028000000AC17000814180008C2
:1017E0002800002000040000BC17000800A24A04E2
:1017F00000000000000000000102030406070809C1
:1018000000000000010203040102030406070809A6
:0418100002040608C0
:0400000508000131BD
:00000001FF
